{
  "_format": "hh-sol-artifact-1",
  "contractName": "PixelTigers",
  "sourceName": "contracts/PixelTigers.sol",
  "abi": [
    {
      "inputs": [
        {
          "internalType": "string",
          "name": "baseURI",
          "type": "string"
        }
      ],
      "stateMutability": "nonpayable",
      "type": "constructor"
    },
    {
      "anonymous": false,
      "inputs": [
        {
          "indexed": true,
          "internalType": "address",
          "name": "owner",
          "type": "address"
        },
        {
          "indexed": true,
          "internalType": "address",
          "name": "approved",
          "type": "address"
        },
        {
          "indexed": true,
          "internalType": "uint256",
          "name": "tokenId",
          "type": "uint256"
        }
      ],
      "name": "Approval",
      "type": "event"
    },
    {
      "anonymous": false,
      "inputs": [
        {
          "indexed": true,
          "internalType": "address",
          "name": "owner",
          "type": "address"
        },
        {
          "indexed": true,
          "internalType": "address",
          "name": "operator",
          "type": "address"
        },
        {
          "indexed": false,
          "internalType": "bool",
          "name": "approved",
          "type": "bool"
        }
      ],
      "name": "ApprovalForAll",
      "type": "event"
    },
    {
      "anonymous": false,
      "inputs": [
        {
          "indexed": true,
          "internalType": "address",
          "name": "previousOwner",
          "type": "address"
        },
        {
          "indexed": true,
          "internalType": "address",
          "name": "newOwner",
          "type": "address"
        }
      ],
      "name": "OwnershipTransferred",
      "type": "event"
    },
    {
      "anonymous": false,
      "inputs": [
        {
          "indexed": true,
          "internalType": "address",
          "name": "from",
          "type": "address"
        },
        {
          "indexed": true,
          "internalType": "address",
          "name": "to",
          "type": "address"
        },
        {
          "indexed": true,
          "internalType": "uint256",
          "name": "tokenId",
          "type": "uint256"
        }
      ],
      "name": "Transfer",
      "type": "event"
    },
    {
      "anonymous": false,
      "inputs": [
        {
          "indexed": false,
          "internalType": "uint256",
          "name": "tokenId",
          "type": "uint256"
        },
        {
          "indexed": false,
          "internalType": "uint256",
          "name": "tiger1",
          "type": "uint256"
        },
        {
          "indexed": false,
          "internalType": "uint256",
          "name": "tiger2",
          "type": "uint256"
        }
      ],
      "name": "breedhappened",
      "type": "event"
    },
    {
      "inputs": [],
      "name": "BREED_PRICE",
      "outputs": [
        {
          "internalType": "uint256",
          "name": "",
          "type": "uint256"
        }
      ],
      "stateMutability": "view",
      "type": "function"
    },
    {
      "inputs": [],
      "name": "MAX_PER_MINT",
      "outputs": [
        {
          "internalType": "uint256",
          "name": "",
          "type": "uint256"
        }
      ],
      "stateMutability": "view",
      "type": "function"
    },
    {
      "inputs": [],
      "name": "Pixel",
      "outputs": [
        {
          "internalType": "contract iPixelERC20",
          "name": "",
          "type": "address"
        }
      ],
      "stateMutability": "view",
      "type": "function"
    },
    {
      "inputs": [
        {
          "internalType": "address[]",
          "name": "presaleAddresses",
          "type": "address[]"
        },
        {
          "internalType": "uint256",
          "name": "amount",
          "type": "uint256"
        }
      ],
      "name": "addPresale",
      "outputs": [],
      "stateMutability": "nonpayable",
      "type": "function"
    },
    {
      "inputs": [
        {
          "internalType": "address[]",
          "name": "reservedAddresses",
          "type": "address[]"
        },
        {
          "internalType": "uint256",
          "name": "amount",
          "type": "uint256"
        }
      ],
      "name": "addReserved",
      "outputs": [],
      "stateMutability": "nonpayable",
      "type": "function"
    },
    {
      "inputs": [],
      "name": "amtReserved",
      "outputs": [
        {
          "internalType": "uint256",
          "name": "",
          "type": "uint256"
        }
      ],
      "stateMutability": "view",
      "type": "function"
    },
    {
      "inputs": [
        {
          "internalType": "address",
          "name": "to",
          "type": "address"
        },
        {
          "internalType": "uint256",
          "name": "tokenId",
          "type": "uint256"
        }
      ],
      "name": "approve",
      "outputs": [],
      "stateMutability": "nonpayable",
      "type": "function"
    },
    {
      "inputs": [],
      "name": "babyCount",
      "outputs": [
        {
          "internalType": "uint256",
          "name": "",
          "type": "uint256"
        }
      ],
      "stateMutability": "view",
      "type": "function"
    },
    {
      "inputs": [
        {
          "internalType": "address",
          "name": "owner",
          "type": "address"
        }
      ],
      "name": "balanceOf",
      "outputs": [
        {
          "internalType": "uint256",
          "name": "",
          "type": "uint256"
        }
      ],
      "stateMutability": "view",
      "type": "function"
    },
    {
      "inputs": [
        {
          "internalType": "uint256",
          "name": "tiger1",
          "type": "uint256"
        },
        {
          "internalType": "uint256",
          "name": "tiger2",
          "type": "uint256"
        }
      ],
      "name": "breed",
      "outputs": [],
      "stateMutability": "nonpayable",
      "type": "function"
    },
    {
      "inputs": [
        {
          "internalType": "uint256",
          "name": "tokenId",
          "type": "uint256"
        }
      ],
      "name": "getApproved",
      "outputs": [
        {
          "internalType": "address",
          "name": "",
          "type": "address"
        }
      ],
      "stateMutability": "view",
      "type": "function"
    },
    {
      "inputs": [
        {
          "internalType": "address",
          "name": "owner",
          "type": "address"
        },
        {
          "internalType": "address",
          "name": "operator",
          "type": "address"
        }
      ],
      "name": "isApprovedForAll",
      "outputs": [
        {
          "internalType": "bool",
          "name": "",
          "type": "bool"
        }
      ],
      "stateMutability": "view",
      "type": "function"
    },
    {
      "inputs": [
        {
          "internalType": "uint256",
          "name": "",
          "type": "uint256"
        }
      ],
      "name": "isLegendary",
      "outputs": [
        {
          "internalType": "bool",
          "name": "",
          "type": "bool"
        }
      ],
      "stateMutability": "view",
      "type": "function"
    },
    {
      "inputs": [
        {
          "internalType": "uint256",
          "name": "_count",
          "type": "uint256"
        }
      ],
      "name": "mint",
      "outputs": [],
      "stateMutability": "payable",
      "type": "function"
    },
    {
      "inputs": [],
      "name": "name",
      "outputs": [
        {
          "internalType": "string",
          "name": "",
          "type": "string"
        }
      ],
      "stateMutability": "view",
      "type": "function"
    },
    {
      "inputs": [
        {
          "internalType": "address",
          "name": "",
          "type": "address"
        }
      ],
      "name": "numberOfLegendaries",
      "outputs": [
        {
          "internalType": "uint256",
          "name": "",
          "type": "uint256"
        }
      ],
      "stateMutability": "view",
      "type": "function"
    },
    {
      "inputs": [],
      "name": "owner",
      "outputs": [
        {
          "internalType": "address",
          "name": "",
          "type": "address"
        }
      ],
      "stateMutability": "view",
      "type": "function"
    },
    {
      "inputs": [
        {
          "internalType": "address",
          "name": "",
          "type": "address"
        }
      ],
      "name": "ownerGenesisCount",
      "outputs": [
        {
          "internalType": "uint256",
          "name": "",
          "type": "uint256"
        }
      ],
      "stateMutability": "view",
      "type": "function"
    },
    {
      "inputs": [
        {
          "internalType": "uint256",
          "name": "tokenId",
          "type": "uint256"
        }
      ],
      "name": "ownerOf",
      "outputs": [
        {
          "internalType": "address",
          "name": "",
          "type": "address"
        }
      ],
      "stateMutability": "view",
      "type": "function"
    },
    {
      "inputs": [],
      "name": "presaleActive",
      "outputs": [
        {
          "internalType": "bool",
          "name": "",
          "type": "bool"
        }
      ],
      "stateMutability": "view",
      "type": "function"
    },
    {
      "inputs": [
        {
          "internalType": "uint256",
          "name": "_count",
          "type": "uint256"
        }
      ],
      "name": "presaleMint",
      "outputs": [],
      "stateMutability": "payable",
      "type": "function"
    },
    {
      "inputs": [
        {
          "internalType": "address",
          "name": "",
          "type": "address"
        }
      ],
      "name": "presaleWhitelist",
      "outputs": [
        {
          "internalType": "uint256",
          "name": "",
          "type": "uint256"
        }
      ],
      "stateMutability": "view",
      "type": "function"
    },
    {
      "inputs": [],
      "name": "price",
      "outputs": [
        {
          "internalType": "uint256",
          "name": "",
          "type": "uint256"
        }
      ],
      "stateMutability": "view",
      "type": "function"
    },
    {
      "inputs": [],
      "name": "publicSaleActive",
      "outputs": [
        {
          "internalType": "bool",
          "name": "",
          "type": "bool"
        }
      ],
      "stateMutability": "view",
      "type": "function"
    },
    {
      "inputs": [
        {
          "internalType": "address[]",
          "name": "reservedAddresses",
          "type": "address[]"
        },
        {
          "internalType": "uint256",
          "name": "amount",
          "type": "uint256"
        }
      ],
      "name": "removeReserved",
      "outputs": [],
      "stateMutability": "nonpayable",
      "type": "function"
    },
    {
      "inputs": [],
      "name": "renounceOwnership",
      "outputs": [],
      "stateMutability": "nonpayable",
      "type": "function"
    },
    {
      "inputs": [],
      "name": "reserveActive",
      "outputs": [
        {
          "internalType": "bool",
          "name": "",
          "type": "bool"
        }
      ],
      "stateMutability": "view",
      "type": "function"
    },
    {
      "inputs": [
        {
          "internalType": "uint256",
          "name": "_count",
          "type": "uint256"
        }
      ],
      "name": "reserveMint",
      "outputs": [],
      "stateMutability": "payable",
      "type": "function"
    },
    {
      "inputs": [
        {
          "internalType": "address",
          "name": "",
          "type": "address"
        }
      ],
      "name": "reservedList",
      "outputs": [
        {
          "internalType": "uint256",
          "name": "",
          "type": "uint256"
        }
      ],
      "stateMutability": "view",
      "type": "function"
    },
    {
      "inputs": [
        {
          "internalType": "address",
          "name": "from",
          "type": "address"
        },
        {
          "internalType": "address",
          "name": "to",
          "type": "address"
        },
        {
          "internalType": "uint256",
          "name": "tokenId",
          "type": "uint256"
        }
      ],
      "name": "safeTransferFrom",
      "outputs": [],
      "stateMutability": "nonpayable",
      "type": "function"
    },
    {
      "inputs": [
        {
          "internalType": "address",
          "name": "from",
          "type": "address"
        },
        {
          "internalType": "address",
          "name": "to",
          "type": "address"
        },
        {
          "internalType": "uint256",
          "name": "tokenId",
          "type": "uint256"
        },
        {
          "internalType": "bytes",
          "name": "data",
          "type": "bytes"
        }
      ],
      "name": "safeTransferFrom",
      "outputs": [],
      "stateMutability": "nonpayable",
      "type": "function"
    },
    {
      "inputs": [
        {
          "internalType": "address",
          "name": "operator",
          "type": "address"
        },
        {
          "internalType": "bool",
          "name": "approved",
          "type": "bool"
        }
      ],
      "name": "setApprovalForAll",
      "outputs": [],
      "stateMutability": "nonpayable",
      "type": "function"
    },
    {
      "inputs": [
        {
          "internalType": "string",
          "name": "_baseTokenURI",
          "type": "string"
        }
      ],
      "name": "setBaseURI",
      "outputs": [],
      "stateMutability": "nonpayable",
      "type": "function"
    },
    {
      "inputs": [
        {
          "internalType": "uint256[]",
          "name": "tokenList",
          "type": "uint256[]"
        }
      ],
      "name": "setLegendaryList",
      "outputs": [],
      "stateMutability": "nonpayable",
      "type": "function"
    },
    {
      "inputs": [
        {
          "internalType": "address",
          "name": "tokenERC20Address",
          "type": "address"
        }
      ],
      "name": "settokenERC20",
      "outputs": [],
      "stateMutability": "nonpayable",
      "type": "function"
    },
    {
      "inputs": [
        {
          "internalType": "bytes4",
          "name": "interfaceId",
          "type": "bytes4"
        }
      ],
      "name": "supportsInterface",
      "outputs": [
        {
          "internalType": "bool",
          "name": "",
          "type": "bool"
        }
      ],
      "stateMutability": "view",
      "type": "function"
    },
    {
      "inputs": [],
      "name": "symbol",
      "outputs": [
        {
          "internalType": "string",
          "name": "",
          "type": "string"
        }
      ],
      "stateMutability": "view",
      "type": "function"
    },
    {
      "inputs": [],
      "name": "togglePresale",
      "outputs": [],
      "stateMutability": "nonpayable",
      "type": "function"
    },
    {
      "inputs": [],
      "name": "togglePublicSale",
      "outputs": [],
      "stateMutability": "nonpayable",
      "type": "function"
    },
    {
      "inputs": [],
      "name": "toggleReserveSale",
      "outputs": [],
      "stateMutability": "nonpayable",
      "type": "function"
    },
    {
      "inputs": [
        {
          "internalType": "uint256",
          "name": "index",
          "type": "uint256"
        }
      ],
      "name": "tokenByIndex",
      "outputs": [
        {
          "internalType": "uint256",
          "name": "",
          "type": "uint256"
        }
      ],
      "stateMutability": "view",
      "type": "function"
    },
    {
      "inputs": [
        {
          "internalType": "address",
          "name": "owner",
          "type": "address"
        }
      ],
      "name": "tokenIdsOfOwner",
      "outputs": [
        {
          "internalType": "uint256[]",
          "name": "",
          "type": "uint256[]"
        }
      ],
      "stateMutability": "view",
      "type": "function"
    },
    {
      "inputs": [
        {
          "internalType": "address",
          "name": "owner",
          "type": "address"
        },
        {
          "internalType": "uint256",
          "name": "index",
          "type": "uint256"
        }
      ],
      "name": "tokenOfOwnerByIndex",
      "outputs": [
        {
          "internalType": "uint256",
          "name": "",
          "type": "uint256"
        }
      ],
      "stateMutability": "view",
      "type": "function"
    },
    {
      "inputs": [
        {
          "internalType": "uint256",
          "name": "tokenId",
          "type": "uint256"
        }
      ],
      "name": "tokenURI",
      "outputs": [
        {
          "internalType": "string",
          "name": "",
          "type": "string"
        }
      ],
      "stateMutability": "view",
      "type": "function"
    },
    {
      "inputs": [],
      "name": "totalAmtGenesis",
      "outputs": [
        {
          "internalType": "uint256",
          "name": "",
          "type": "uint256"
        }
      ],
      "stateMutability": "view",
      "type": "function"
    },
    {
      "inputs": [],
      "name": "totalMaxSupply",
      "outputs": [
        {
          "internalType": "uint256",
          "name": "",
          "type": "uint256"
        }
      ],
      "stateMutability": "view",
      "type": "function"
    },
    {
      "inputs": [],
      "name": "totalSupply",
      "outputs": [
        {
          "internalType": "uint256",
          "name": "",
          "type": "uint256"
        }
      ],
      "stateMutability": "view",
      "type": "function"
    },
    {
      "inputs": [
        {
          "internalType": "address",
          "name": "from",
          "type": "address"
        },
        {
          "internalType": "address",
          "name": "to",
          "type": "address"
        },
        {
          "internalType": "uint256",
          "name": "tokenId",
          "type": "uint256"
        }
      ],
      "name": "transferFrom",
      "outputs": [],
      "stateMutability": "nonpayable",
      "type": "function"
    },
    {
      "inputs": [
        {
          "internalType": "address",
          "name": "newOwner",
          "type": "address"
        }
      ],
      "name": "transferOwnership",
      "outputs": [],
      "stateMutability": "nonpayable",
      "type": "function"
    },
    {
      "inputs": [],
      "name": "withdraw",
      "outputs": [],
      "stateMutability": "nonpayable",
      "type": "function"
    }
  ],
  "bytecode": "0x6080604052613414600c5561115c600d556000600e5566d529ae9e860000600f556011805462ffffff191690553480156200003957600080fd5b5060405162004007380380620040078339810160408190526200005c9162000264565b604080518082018252600b81526a506978656c54696765727360a81b602080830191825283518085019094526002845261141560f21b908401528151849391620000aa9160009190620001be565b508051620000c0906001906020840190620001be565b505050620000dd620000d7620000f060201b60201c565b620000f4565b620000e88162000146565b50506200038d565b3390565b600a80546001600160a01b038381166001600160a01b0319831681179093556040519116919082907f8be0079c531659141344cd1fd0a4f28419497f9722a3daafe3b4186f6b6457e090600090a35050565b600a546001600160a01b03163314620001a55760405162461bcd60e51b815260206004820181905260248201527f4f776e61626c653a2063616c6c6572206973206e6f7420746865206f776e6572604482015260640160405180910390fd5b8051620001ba90600b906020840190620001be565b5050565b828054620001cc906200033a565b90600052602060002090601f016020900481019282620001f057600085556200023b565b82601f106200020b57805160ff19168380011785556200023b565b828001600101855582156200023b579182015b828111156200023b5782518255916020019190600101906200021e565b50620002499291506200024d565b5090565b5b808211156200024957600081556001016200024e565b6000602080838503121562000277578182fd5b82516001600160401b03808211156200028e578384fd5b818501915085601f830112620002a2578384fd5b815181811115620002b757620002b762000377565b604051601f8201601f19908116603f01168101908382118183101715620002e257620002e262000377565b816040528281528886848701011115620002fa578687fd5b8693505b828410156200031d5784840186015181850187015292850192620002fe565b828411156200032e57868684830101525b98975050505050505050565b600181811c908216806200034f57607f821691505b602082108114156200037157634e487b7160e01b600052602260045260246000fd5b50919050565b634e487b7160e01b600052604160045260246000fd5b613c6a806200039d6000396000f3fe6080604052600436106103295760003560e01c806395d89b41116101a5578063c39128c1116100ec578063d9ecad7b11610095578063e985e9c51161006f578063e985e9c5146108a7578063eb8835ab146108f0578063ed3258101461091d578063f2fde38b1461094a57600080fd5b8063d9ecad7b14610852578063e222c7f914610872578063e6e5e1fc1461088757600080fd5b8063c884f0bb116100c6578063c884f0bb14610809578063c9b298f114610829578063d58ee9611461083c57600080fd5b8063c39128c114610799578063c5a991f8146107b9578063c87b56dd146107e957600080fd5b8063a22cb4651161014e578063bbd7173911610128578063bbd717391461073d578063bc8893b41461075d578063bf424e7e1461077c57600080fd5b8063a22cb465146106dd578063b88d4fde146106fd578063b8cbcc841461071d57600080fd5b8063a035b1fe1161017f578063a035b1fe1461069e578063a0617ad0146106b4578063a0712d68146106ca57600080fd5b806395d89b411461063c57806399aa5d97146106515780639e59e5981461067157600080fd5b80633ccfd60b11610274578063539cb1e71161021d57806370a08231116101f757806370a08231146105c9578063715018a6146105e95780638da5cb5b146105fe5780638e83555e1461061c57600080fd5b8063539cb1e71461057357806355f804b3146105895780636352211e146105a957600080fd5b80634f6ccce71161024e5780634f6ccce71461050c57806350e12a8d1461052c57806353135ca01461055957600080fd5b80633ccfd60b146104c157806342842e0e146104d657806345cac739146104f657600080fd5b80631342ff4c116102d657806329ca6ad7116102b057806329ca6ad71461045f5780632f745c591461048c57806334393743146104ac57600080fd5b80631342ff4c1461041757806318160ddd1461042a57806323b872dd1461043f57600080fd5b8063081812fc11610307578063081812fc1461039c578063095ea7b3146103d457806309d42b30146103f457600080fd5b806301ffc9a71461032e578063034d77941461036357806306fdde031461037a575b600080fd5b34801561033a57600080fd5b5061034e610349366004613898565b61096a565b60405190151581526020015b60405180910390f35b34801561036f57600080fd5b506103786109c6565b005b34801561038657600080fd5b5061038f610a60565b60405161035a9190613a48565b3480156103a857600080fd5b506103bc6103b7366004613916565b610af2565b6040516001600160a01b03909116815260200161035a565b3480156103e057600080fd5b506103786103ef3660046137e5565b610b98565b34801561040057600080fd5b50610409600281565b60405190815260200161035a565b610378610425366004613916565b610cca565b34801561043657600080fd5b50600854610409565b34801561044b57600080fd5b5061037861045a3660046136f7565b610ee1565b34801561046b57600080fd5b5061040961047a3660046136ab565b60166020526000908152604090205481565b34801561049857600080fd5b506104096104a73660046137e5565b611038565b3480156104b857600080fd5b506103786110e0565b3480156104cd57600080fd5b5061037861116c565b3480156104e257600080fd5b506103786104f13660046136f7565b6111f9565b34801561050257600080fd5b5061040960105481565b34801561051857600080fd5b50610409610527366004613916565b611214565b34801561053857600080fd5b506104096105473660046136ab565b60136020526000908152604090205481565b34801561056557600080fd5b5060115461034e9060ff1681565b34801561057f57600080fd5b50610409600e5481565b34801561059557600080fd5b506103786105a43660046138d0565b6112c6565b3480156105b557600080fd5b506103bc6105c4366004613916565b611333565b3480156105d557600080fd5b506104096105e43660046136ab565b6113be565b3480156105f557600080fd5b50610378611458565b34801561060a57600080fd5b50600a546001600160a01b03166103bc565b34801561062857600080fd5b5061037861063736600461380e565b6114be565b34801561064857600080fd5b5061038f611604565b34801561065d57600080fd5b506015546103bc906001600160a01b031681565b34801561067d57600080fd5b5061069161068c3660046136ab565b611613565b60405161035a9190613a04565b3480156106aa57600080fd5b50610409600f5481565b3480156106c057600080fd5b50610409600c5481565b6103786106d8366004613916565b6116d1565b3480156106e957600080fd5b506103786106f83660046137ab565b61191e565b34801561070957600080fd5b50610378610718366004613732565b611a01565b34801561072957600080fd5b5061037861073836600461380e565b611b59565b34801561074957600080fd5b5060115461034e9062010000900460ff1681565b34801561076957600080fd5b5060115461034e90610100900460ff1681565b34801561078857600080fd5b50610409683635c9adc5dea0000081565b3480156107a557600080fd5b506103786107b4366004613858565b611c24565b3480156107c557600080fd5b5061034e6107d4366004613916565b60176020526000908152604090205460ff1681565b3480156107f557600080fd5b5061038f610804366004613916565b611d4d565b34801561081557600080fd5b5061037861082436600461380e565b611e36565b610378610837366004613916565b611f12565b34801561084857600080fd5b50610409600d5481565b34801561085e57600080fd5b5061037861086d36600461392e565b61214e565b34801561087e57600080fd5b506103786124ec565b34801561089357600080fd5b506103786108a23660046136ab565b612580565b3480156108b357600080fd5b5061034e6108c23660046136c5565b6001600160a01b03918216600090815260056020908152604080832093909416825291909152205460ff1690565b3480156108fc57600080fd5b5061040961090b3660046136ab565b60126020526000908152604090205481565b34801561092957600080fd5b506104096109383660046136ab565b60146020526000908152604090205481565b34801561095657600080fd5b506103786109653660046136ab565b612614565b60007fffffffff0000000000000000000000000000000000000000000000000000000082167f780e9d630000000000000000000000000000000000000000000000000000000014806109c057506109c0826126f6565b92915050565b600a546001600160a01b03163314610a255760405162461bcd60e51b815260206004820181905260248201527f4f776e61626c653a2063616c6c6572206973206e6f7420746865206f776e657260448201526064015b60405180910390fd5b601180547fffffffffffffffffffffffffffffffffffffffffffffffffffffffffff00ffff8116620100009182900460ff1615909102179055565b606060008054610a6f90613b3c565b80601f0160208091040260200160405190810160405280929190818152602001828054610a9b90613b3c565b8015610ae85780601f10610abd57610100808354040283529160200191610ae8565b820191906000526020600020905b815481529060010190602001808311610acb57829003601f168201915b5050505050905090565b6000818152600260205260408120546001600160a01b0316610b7c5760405162461bcd60e51b815260206004820152602c60248201527f4552433732313a20617070726f76656420717565727920666f72206e6f6e657860448201527f697374656e7420746f6b656e00000000000000000000000000000000000000006064820152608401610a1c565b506000908152600460205260409020546001600160a01b031690565b6000610ba382611333565b9050806001600160a01b0316836001600160a01b03161415610c2d5760405162461bcd60e51b815260206004820152602160248201527f4552433732313a20617070726f76616c20746f2063757272656e74206f776e6560448201527f72000000000000000000000000000000000000000000000000000000000000006064820152608401610a1c565b336001600160a01b0382161480610c495750610c4981336108c2565b610cbb5760405162461bcd60e51b815260206004820152603860248201527f4552433732313a20617070726f76652063616c6c6572206973206e6f74206f7760448201527f6e6572206e6f7220617070726f76656420666f7220616c6c00000000000000006064820152608401610a1c565b610cc583836127d9565b505050565b6000610cd560085490565b336000908152601360205260409020546011549192509062010000900460ff16610d415760405162461bcd60e51b815260206004820152600f60248201527f4d696e74206e6f742061637469766500000000000000000000000000000000006044820152606401610a1c565b60008111610d915760405162461bcd60e51b815260206004820152601460248201527f4e6f74206f6e207265736572766564206c6973740000000000000000000000006044820152606401610a1c565b80831115610de15760405162461bcd60e51b815260206004820152601d60248201527f43616e2774206d696e74206d6f7265207468616e2072657365727665640000006044820152606401610a1c565b600d54610dee838561285f565b1115610df957600080fd5b610e038382613ac4565b336000908152601360205260408120919091555b83811015610e6557610e3233610e2d8386613a5b565b61286b565b336000908152601460205260408120805491610e4d83613b77565b91905055508080610e5d90613b77565b915050610e17565b506015546040517f351505040000000000000000000000000000000000000000000000000000000081523360048201526001600160a01b0390911690633515050490602401600060405180830381600087803b158015610ec457600080fd5b505af1158015610ed8573d6000803e3d6000fd5b50505050505050565b600d54811015610fbe576015546040517f5a3295950000000000000000000000000000000000000000000000000000000081526001600160a01b038581166004830152848116602483015290911690635a32959590604401600060405180830381600087803b158015610f5357600080fd5b505af1158015610f67573d6000803e3d6000fd5b505050506001600160a01b0383166000908152601460205260408120805491610f8f83613b07565b90915550506001600160a01b0382166000908152601460205260408120805491610fb883613b77565b91905055505b60008181526017602052604090205460ff1615156001141561102d576001600160a01b0383166000908152601660205260408120805491610ffe83613b07565b90915550506001600160a01b038216600090815260166020526040812080549161102783613b77565b91905055505b610cc5838383612885565b6000611043836113be565b82106110b75760405162461bcd60e51b815260206004820152602b60248201527f455243373231456e756d657261626c653a206f776e657220696e646578206f7560448201527f74206f6620626f756e64730000000000000000000000000000000000000000006064820152608401610a1c565b506001600160a01b03919091166000908152600660209081526040808320938352929052205490565b600a546001600160a01b0316331461113a5760405162461bcd60e51b815260206004820181905260248201527f4f776e61626c653a2063616c6c6572206973206e6f7420746865206f776e65726044820152606401610a1c565b601180547fffffffffffffffffffffffffffffffffffffffffffffffffffffffffffffff00811660ff90911615179055565b600a546001600160a01b031633146111c65760405162461bcd60e51b815260206004820181905260248201527f4f776e61626c653a2063616c6c6572206973206e6f7420746865206f776e65726044820152606401610a1c565b6040514790339082156108fc029083906000818181858888f193505050501580156111f5573d6000803e3d6000fd5b5050565b610cc583838360405180602001604052806000815250611a01565b600061121f60085490565b82106112935760405162461bcd60e51b815260206004820152602c60248201527f455243373231456e756d657261626c653a20676c6f62616c20696e646578206f60448201527f7574206f6620626f756e647300000000000000000000000000000000000000006064820152608401610a1c565b600882815481106112b457634e487b7160e01b600052603260045260246000fd5b90600052602060002001549050919050565b600a546001600160a01b031633146113205760405162461bcd60e51b815260206004820181905260248201527f4f776e61626c653a2063616c6c6572206973206e6f7420746865206f776e65726044820152606401610a1c565b80516111f590600b906020840190613518565b6000818152600260205260408120546001600160a01b0316806109c05760405162461bcd60e51b815260206004820152602960248201527f4552433732313a206f776e657220717565727920666f72206e6f6e657869737460448201527f656e7420746f6b656e00000000000000000000000000000000000000000000006064820152608401610a1c565b60006001600160a01b03821661143c5760405162461bcd60e51b815260206004820152602a60248201527f4552433732313a2062616c616e636520717565727920666f7220746865207a6560448201527f726f2061646472657373000000000000000000000000000000000000000000006064820152608401610a1c565b506001600160a01b031660009081526003602052604090205490565b600a546001600160a01b031633146114b25760405162461bcd60e51b815260206004820181905260248201527f4f776e61626c653a2063616c6c6572206973206e6f7420746865206f776e65726044820152606401610a1c565b6114bc600061290c565b565b600a546001600160a01b031633146115185760405162461bcd60e51b815260206004820181905260248201527f4f776e61626c653a2063616c6c6572206973206e6f7420746865206f776e65726044820152606401610a1c565b60005b828110156115fe57816013600086868581811061154857634e487b7160e01b600052603260045260246000fd5b905060200201602081019061155d91906136ab565b6001600160a01b03166001600160a01b03168152602001908152602001600020546115889190613ac4565b601360008686858181106115ac57634e487b7160e01b600052603260045260246000fd5b90506020020160208101906115c191906136ab565b6001600160a01b031681526020810191909152604001600020556010546115e9908390613ac4565b601055806115f681613b77565b91505061151b565b50505050565b606060018054610a6f90613b3c565b60606000611620836113be565b905060008167ffffffffffffffff81111561164b57634e487b7160e01b600052604160045260246000fd5b604051908082528060200260200182016040528015611674578160200160208202803683370190505b50905060005b828110156116c95761168c8582611038565b8282815181106116ac57634e487b7160e01b600052603260045260246000fd5b6020908102919091010152806116c181613b77565b91505061167a565b509392505050565b60006116dc60085490565b601154909150610100900460ff166117365760405162461bcd60e51b815260206004820152600f60248201527f4d696e74206e6f742061637469766500000000000000000000000000000000006044820152606401610a1c565b600082118015611747575060028211155b6117935760405162461bcd60e51b815260206004820152601760248201527f496e76616c696420707572636861736520616d6f756e740000000000000000006044820152606401610a1c565b601054600d546117a39190613ac4565b6117ad828461285f565b11156117fb5760405162461bcd60e51b815260206004820152600f60248201527f537570706c7920657863656564656400000000000000000000000000000000006044820152606401610a1c565b600f54349061180a9084612976565b146118575760405162461bcd60e51b815260206004820152601660248201527f56616c75652073656e74206e6f7420636f7272656374000000000000000000006044820152606401610a1c565b60005b828110156118a35761187033610e2d8385613a5b565b33600090815260146020526040812080549161188b83613b77565b9190505550808061189b90613b77565b91505061185a565b506015546040517f351505040000000000000000000000000000000000000000000000000000000081523360048201526001600160a01b0390911690633515050490602401600060405180830381600087803b15801561190257600080fd5b505af1158015611916573d6000803e3d6000fd5b505050505050565b6001600160a01b0382163314156119775760405162461bcd60e51b815260206004820152601960248201527f4552433732313a20617070726f766520746f2063616c6c6572000000000000006044820152606401610a1c565b3360008181526005602090815260408083206001600160a01b0387168085529083529281902080547fffffffffffffffffffffffffffffffffffffffffffffffffffffffffffffff001686151590811790915590519081529192917f17307eab39ab6107e8899845ad3d59bd9653f200f220920489ca2b5937696c31910160405180910390a35050565b600d54821015611ade576015546040517f5a3295950000000000000000000000000000000000000000000000000000000081526001600160a01b038681166004830152858116602483015290911690635a32959590604401600060405180830381600087803b158015611a7357600080fd5b505af1158015611a87573d6000803e3d6000fd5b505050506001600160a01b0384166000908152601460205260408120805491611aaf83613b07565b90915550506001600160a01b0383166000908152601460205260408120805491611ad883613b77565b91905055505b60008281526017602052604090205460ff16151560011415611b4d576001600160a01b0384166000908152601660205260408120805491611b1e83613b07565b90915550506001600160a01b0383166000908152601660205260408120805491611b4783613b77565b91905055505b6115fe84848484612982565b600a546001600160a01b03163314611bb35760405162461bcd60e51b815260206004820181905260248201527f4f776e61626c653a2063616c6c6572206973206e6f7420746865206f776e65726044820152606401610a1c565b60005b828110156115fe578160126000868685818110611be357634e487b7160e01b600052603260045260246000fd5b9050602002016020810190611bf891906136ab565b6001600160a01b0316815260208101919091526040016000205580611c1c81613b77565b915050611bb6565b600a546001600160a01b03163314611c7e5760405162461bcd60e51b815260206004820181905260248201527f4f776e61626c653a2063616c6c6572206973206e6f7420746865206f776e65726044820152606401610a1c565b60005b81811015610cc55760166000611cbc858585818110611cb057634e487b7160e01b600052603260045260246000fd5b90506020020135611333565b6001600160a01b0316815260208101919091526040016000908120805491611ce383613b77565b9190505550600160176000858585818110611d0e57634e487b7160e01b600052603260045260246000fd5b90506020020135815260200190815260200160002060006101000a81548160ff0219169083151502179055508080611d4590613b77565b915050611c81565b6000818152600260205260409020546060906001600160a01b0316611dda5760405162461bcd60e51b815260206004820152602f60248201527f4552433732314d657461646174613a2055524920717565727920666f72206e6f60448201527f6e6578697374656e7420746f6b656e00000000000000000000000000000000006064820152608401610a1c565b6000611de4612a0a565b90506000815111611e045760405180602001604052806000815250611e2f565b80611e0e84612a19565b604051602001611e1f929190613999565b6040516020818303038152906040525b9392505050565b600a546001600160a01b03163314611e905760405162461bcd60e51b815260206004820181905260248201527f4f776e61626c653a2063616c6c6572206973206e6f7420746865206f776e65726044820152606401610a1c565b60005b828110156115fe578160136000868685818110611ec057634e487b7160e01b600052603260045260246000fd5b9050602002016020810190611ed591906136ab565b6001600160a01b03168152602081019190915260400160002055601054611efd908390613a5b565b60105580611f0a81613b77565b915050611e93565b6000611f1d60085490565b336000908152601260205260409020546011549192509060ff16611f835760405162461bcd60e51b815260206004820152601260248201527f50726573616c65206e6f742061637469766500000000000000000000000000006044820152606401610a1c565b60008111611fd35760405162461bcd60e51b815260206004820152600f60248201527f4e6f742077686974656c697374656400000000000000000000000000000000006044820152606401610a1c565b808311156120235760405162461bcd60e51b815260206004820152601d60248201527f43616e2774206d696e74206d6f7265207468616e2072657365727665640000006044820152606401610a1c565b601054600d546120339190613ac4565b61203d838561285f565b111561208b5760405162461bcd60e51b815260206004820152600f60248201527f537570706c7920657863656564656400000000000000000000000000000000006044820152606401610a1c565b600f54349061209a9085612976565b146120e75760405162461bcd60e51b815260206004820152601660248201527f56616c75652073656e74206e6f7420636f7272656374000000000000000000006044820152606401610a1c565b6120f18382613ac4565b336000908152601260205260408120919091555b83811015610e655761211b33610e2d8386613a5b565b33600090815260146020526040812080549161213683613b77565b9190505550808061214690613b77565b915050612105565b8161215881611333565b6001600160a01b0316336001600160a01b0316146121b85760405162461bcd60e51b815260206004820152601560248201527f446f206e6f74206f776e207468697320746967657200000000000000000000006044820152606401610a1c565b816121c281611333565b6001600160a01b0316336001600160a01b0316146122225760405162461bcd60e51b815260206004820152601560248201527f446f206e6f74206f776e207468697320746967657200000000000000000000006044820152606401610a1c565b600061222d60085490565b9050600c5481106122805760405162461bcd60e51b815260206004820152601a60248201527f4e6f206d6f7265206261626965732063616e20626520627265640000000000006044820152606401610a1c565b600d54851080156122925750600d5484105b6122de5760405162461bcd60e51b815260206004820152601460248201527f4261626965732063616e277420626520627265640000000000000000000000006044820152606401610a1c565b8385141561232e5760405162461bcd60e51b815260206004820152601560248201527f55736520646966666572656e7420706172656e747300000000000000000000006044820152606401610a1c565b600044423360405160200161237b93929190928352602083019190915260601b7fffffffffffffffffffffffffffffffffffffffff00000000000000000000000016604082015260540190565b6040516020818303038152906040528051906020012060001c90506000600d546122b8836123a99190613bb0565b6123b39190613a5b565b90505b6000818152600260205260409020546001600160a01b0316156123fd578061341314156123f3575061115b806123eb81613b77565b9150506123b6565b806123eb81613b77565b6015546040517f9dc29fac000000000000000000000000000000000000000000000000000000008152336004820152683635c9adc5dea0000060248201526001600160a01b0390911690639dc29fac90604401600060405180830381600087803b15801561246a57600080fd5b505af115801561247e573d6000803e3d6000fd5b5050600e805492509050600061249383613b77565b91905055506124a2338261286b565b60408051828152602081018990529081018790527f5509905241427f977eaf15e17954dfd3827ec0a9811ae7715944c051f3f0818a9060600160405180910390a150505050505050565b600a546001600160a01b031633146125465760405162461bcd60e51b815260206004820181905260248201527f4f776e61626c653a2063616c6c6572206973206e6f7420746865206f776e65726044820152606401610a1c565b601180547fffffffffffffffffffffffffffffffffffffffffffffffffffffffffffff00ff81166101009182900460ff1615909102179055565b600a546001600160a01b031633146125da5760405162461bcd60e51b815260206004820181905260248201527f4f776e61626c653a2063616c6c6572206973206e6f7420746865206f776e65726044820152606401610a1c565b601580547fffffffffffffffffffffffff0000000000000000000000000000000000000000166001600160a01b0392909216919091179055565b600a546001600160a01b0316331461266e5760405162461bcd60e51b815260206004820181905260248201527f4f776e61626c653a2063616c6c6572206973206e6f7420746865206f776e65726044820152606401610a1c565b6001600160a01b0381166126ea5760405162461bcd60e51b815260206004820152602660248201527f4f776e61626c653a206e6577206f776e657220697320746865207a65726f206160448201527f64647265737300000000000000000000000000000000000000000000000000006064820152608401610a1c565b6126f38161290c565b50565b60007fffffffff0000000000000000000000000000000000000000000000000000000082167f80ac58cd00000000000000000000000000000000000000000000000000000000148061278957507fffffffff0000000000000000000000000000000000000000000000000000000082167f5b5e139f00000000000000000000000000000000000000000000000000000000145b806109c057507f01ffc9a7000000000000000000000000000000000000000000000000000000007fffffffff000000000000000000000000000000000000000000000000000000008316146109c0565b600081815260046020526040902080547fffffffffffffffffffffffff0000000000000000000000000000000000000000166001600160a01b038416908117909155819061282682611333565b6001600160a01b03167f8c5be1e5ebec7d5bd14f71427d1e84f3dd0314c0f7b2291e5b200ac8c7c3b92560405160405180910390a45050565b6000611e2f8284613a5b565b6111f5828260405180602001604052806000815250612b6f565b61288f3382612bf8565b6129015760405162461bcd60e51b815260206004820152603160248201527f4552433732313a207472616e736665722063616c6c6572206973206e6f74206f60448201527f776e6572206e6f7220617070726f7665640000000000000000000000000000006064820152608401610a1c565b610cc5838383612cfc565b600a80546001600160a01b038381167fffffffffffffffffffffffff0000000000000000000000000000000000000000831681179093556040519116919082907f8be0079c531659141344cd1fd0a4f28419497f9722a3daafe3b4186f6b6457e090600090a35050565b6000611e2f8284613a87565b61298c3383612bf8565b6129fe5760405162461bcd60e51b815260206004820152603160248201527f4552433732313a207472616e736665722063616c6c6572206973206e6f74206f60448201527f776e6572206e6f7220617070726f7665640000000000000000000000000000006064820152608401610a1c565b6115fe84848484612eec565b6060600b8054610a6f90613b3c565b606081612a5957505060408051808201909152600181527f3000000000000000000000000000000000000000000000000000000000000000602082015290565b8160005b8115612a835780612a6d81613b77565b9150612a7c9050600a83613a73565b9150612a5d565b60008167ffffffffffffffff811115612aac57634e487b7160e01b600052604160045260246000fd5b6040519080825280601f01601f191660200182016040528015612ad6576020820181803683370190505b5090505b8415612b6757612aeb600183613ac4565b9150612af8600a86613bb0565b612b03906030613a5b565b60f81b818381518110612b2657634e487b7160e01b600052603260045260246000fd5b60200101907effffffffffffffffffffffffffffffffffffffffffffffffffffffffffffff1916908160001a905350612b60600a86613a73565b9450612ada565b949350505050565b612b798383612f75565b612b8660008484846130db565b610cc55760405162461bcd60e51b815260206004820152603260248201527f4552433732313a207472616e7366657220746f206e6f6e20455243373231526560448201527f63656976657220696d706c656d656e74657200000000000000000000000000006064820152608401610a1c565b6000818152600260205260408120546001600160a01b0316612c825760405162461bcd60e51b815260206004820152602c60248201527f4552433732313a206f70657261746f7220717565727920666f72206e6f6e657860448201527f697374656e7420746f6b656e00000000000000000000000000000000000000006064820152608401610a1c565b6000612c8d83611333565b9050806001600160a01b0316846001600160a01b03161480612cc85750836001600160a01b0316612cbd84610af2565b6001600160a01b0316145b80612b6757506001600160a01b0380821660009081526005602090815260408083209388168352929052205460ff16612b67565b826001600160a01b0316612d0f82611333565b6001600160a01b031614612d8b5760405162461bcd60e51b815260206004820152602960248201527f4552433732313a207472616e73666572206f6620746f6b656e2074686174206960448201527f73206e6f74206f776e00000000000000000000000000000000000000000000006064820152608401610a1c565b6001600160a01b038216612e065760405162461bcd60e51b8152602060048201526024808201527f4552433732313a207472616e7366657220746f20746865207a65726f2061646460448201527f72657373000000000000000000000000000000000000000000000000000000006064820152608401610a1c565b612e118383836132a6565b612e1c6000826127d9565b6001600160a01b0383166000908152600360205260408120805460019290612e45908490613ac4565b90915550506001600160a01b0382166000908152600360205260408120805460019290612e73908490613a5b565b909155505060008181526002602052604080822080547fffffffffffffffffffffffff0000000000000000000000000000000000000000166001600160a01b0386811691821790925591518493918716917fddf252ad1be2c89b69c2b068fc378daa952ba7f163c4a11628f55a4df523b3ef91a4505050565b612ef7848484612cfc565b612f03848484846130db565b6115fe5760405162461bcd60e51b815260206004820152603260248201527f4552433732313a207472616e7366657220746f206e6f6e20455243373231526560448201527f63656976657220696d706c656d656e74657200000000000000000000000000006064820152608401610a1c565b6001600160a01b038216612fcb5760405162461bcd60e51b815260206004820181905260248201527f4552433732313a206d696e7420746f20746865207a65726f20616464726573736044820152606401610a1c565b6000818152600260205260409020546001600160a01b0316156130305760405162461bcd60e51b815260206004820152601c60248201527f4552433732313a20746f6b656e20616c7265616479206d696e746564000000006044820152606401610a1c565b61303c600083836132a6565b6001600160a01b0382166000908152600360205260408120805460019290613065908490613a5b565b909155505060008181526002602052604080822080547fffffffffffffffffffffffff0000000000000000000000000000000000000000166001600160a01b03861690811790915590518392907fddf252ad1be2c89b69c2b068fc378daa952ba7f163c4a11628f55a4df523b3ef908290a45050565b60006001600160a01b0384163b1561329b576040517f150b7a020000000000000000000000000000000000000000000000000000000081526001600160a01b0385169063150b7a02906131389033908990889088906004016139c8565b602060405180830381600087803b15801561315257600080fd5b505af19250505080156131a0575060408051601f3d9081017fffffffffffffffffffffffffffffffffffffffffffffffffffffffffffffffe016820190925261319d918101906138b4565b60015b613250573d8080156131ce576040519150601f19603f3d011682016040523d82523d6000602084013e6131d3565b606091505b5080516132485760405162461bcd60e51b815260206004820152603260248201527f4552433732313a207472616e7366657220746f206e6f6e20455243373231526560448201527f63656976657220696d706c656d656e74657200000000000000000000000000006064820152608401610a1c565b805181602001fd5b7fffffffff00000000000000000000000000000000000000000000000000000000167f150b7a0200000000000000000000000000000000000000000000000000000000149050612b67565b506001949350505050565b6001600160a01b038316613301576132fc81600880546000838152600960205260408120829055600182018355919091527ff3f7a9fe364faab93b216da50a3214154f22a0a2b415b23a84c8169e8b636ee30155565b613324565b816001600160a01b0316836001600160a01b03161461332457613324838261335e565b6001600160a01b03821661333b57610cc5816133fb565b826001600160a01b0316826001600160a01b031614610cc557610cc582826134d4565b6000600161336b846113be565b6133759190613ac4565b6000838152600760205260409020549091508082146133c8576001600160a01b03841660009081526006602090815260408083208584528252808320548484528184208190558352600790915290208190555b5060009182526007602090815260408084208490556001600160a01b039094168352600681528383209183525290812055565b60085460009061340d90600190613ac4565b6000838152600960205260408120546008805493945090928490811061344357634e487b7160e01b600052603260045260246000fd5b90600052602060002001549050806008838154811061347257634e487b7160e01b600052603260045260246000fd5b60009182526020808320909101929092558281526009909152604080822084905585825281205560088054806134b857634e487b7160e01b600052603160045260246000fd5b6001900381819060005260206000200160009055905550505050565b60006134df836113be565b6001600160a01b039093166000908152600660209081526040808320868452825280832085905593825260079052919091209190915550565b82805461352490613b3c565b90600052602060002090601f016020900481019282613546576000855561358c565b82601f1061355f57805160ff191683800117855561358c565b8280016001018555821561358c579182015b8281111561358c578251825591602001919060010190613571565b5061359892915061359c565b5090565b5b80821115613598576000815560010161359d565b600067ffffffffffffffff808411156135cc576135cc613bf0565b604051601f85017fffffffffffffffffffffffffffffffffffffffffffffffffffffffffffffffe0908116603f0116810190828211818310171561361257613612613bf0565b8160405280935085815286868601111561362b57600080fd5b858560208301376000602087830101525050509392505050565b80356001600160a01b038116811461365c57600080fd5b919050565b60008083601f840112613672578081fd5b50813567ffffffffffffffff811115613689578182fd5b6020830191508360208260051b85010111156136a457600080fd5b9250929050565b6000602082840312156136bc578081fd5b611e2f82613645565b600080604083850312156136d7578081fd5b6136e083613645565b91506136ee60208401613645565b90509250929050565b60008060006060848603121561370b578081fd5b61371484613645565b925061372260208501613645565b9150604084013590509250925092565b60008060008060808587031215613747578081fd5b61375085613645565b935061375e60208601613645565b925060408501359150606085013567ffffffffffffffff811115613780578182fd5b8501601f81018713613790578182fd5b61379f878235602084016135b1565b91505092959194509250565b600080604083850312156137bd578182fd5b6137c683613645565b9150602083013580151581146137da578182fd5b809150509250929050565b600080604083850312156137f7578182fd5b61380083613645565b946020939093013593505050565b600080600060408486031215613822578283fd5b833567ffffffffffffffff811115613838578384fd5b61384486828701613661565b909790965060209590950135949350505050565b6000806020838503121561386a578182fd5b823567ffffffffffffffff811115613880578283fd5b61388c85828601613661565b90969095509350505050565b6000602082840312156138a9578081fd5b8135611e2f81613c06565b6000602082840312156138c5578081fd5b8151611e2f81613c06565b6000602082840312156138e1578081fd5b813567ffffffffffffffff8111156138f7578182fd5b8201601f81018413613907578182fd5b612b67848235602084016135b1565b600060208284031215613927578081fd5b5035919050565b60008060408385031215613940578182fd5b50508035926020909101359150565b60008151808452613967816020860160208601613adb565b601f017fffffffffffffffffffffffffffffffffffffffffffffffffffffffffffffffe0169290920160200192915050565b600083516139ab818460208801613adb565b8351908301906139bf818360208801613adb565b01949350505050565b60006001600160a01b038087168352808616602084015250836040830152608060608301526139fa608083018461394f565b9695505050505050565b6020808252825182820181905260009190848201906040850190845b81811015613a3c57835183529284019291840191600101613a20565b50909695505050505050565b602081526000611e2f602083018461394f565b60008219821115613a6e57613a6e613bc4565b500190565b600082613a8257613a82613bda565b500490565b6000817fffffffffffffffffffffffffffffffffffffffffffffffffffffffffffffffff0483118215151615613abf57613abf613bc4565b500290565b600082821015613ad657613ad6613bc4565b500390565b60005b83811015613af6578181015183820152602001613ade565b838111156115fe5750506000910152565b600081613b1657613b16613bc4565b507fffffffffffffffffffffffffffffffffffffffffffffffffffffffffffffffff0190565b600181811c90821680613b5057607f821691505b60208210811415613b7157634e487b7160e01b600052602260045260246000fd5b50919050565b60007fffffffffffffffffffffffffffffffffffffffffffffffffffffffffffffffff821415613ba957613ba9613bc4565b5060010190565b600082613bbf57613bbf613bda565b500690565b634e487b7160e01b600052601160045260246000fd5b634e487b7160e01b600052601260045260246000fd5b634e487b7160e01b600052604160045260246000fd5b7fffffffff00000000000000000000000000000000000000000000000000000000811681146126f357600080fdfea2646970667358221220281d3b54e283951bcd85361f653ce743f7e4eee5807164deba7bc04dc32493ce64736f6c63430008040033",
  "linkReferences": {},
  "deployedLinkReferences": {}
}