{
  "_format": "hh-sol-artifact-1",
  "contractName": "PixelERC20",
  "sourceName": "contracts/pixelERC20.sol",
  "abi": [
    {
      "inputs": [
        {
          "internalType": "address",
          "name": "nftAddress",
          "type": "address"
        }
      ],
      "stateMutability": "nonpayable",
      "type": "constructor"
    },
    {
      "anonymous": false,
      "inputs": [
        {
          "indexed": true,
          "internalType": "address",
          "name": "owner",
          "type": "address"
        },
        {
          "indexed": true,
          "internalType": "address",
          "name": "spender",
          "type": "address"
        },
        {
          "indexed": false,
          "internalType": "uint256",
          "name": "value",
          "type": "uint256"
        }
      ],
      "name": "Approval",
      "type": "event"
    },
    {
      "anonymous": false,
      "inputs": [
        {
          "indexed": true,
          "internalType": "address",
          "name": "previousOwner",
          "type": "address"
        },
        {
          "indexed": true,
          "internalType": "address",
          "name": "newOwner",
          "type": "address"
        }
      ],
      "name": "OwnershipTransferred",
      "type": "event"
    },
    {
      "anonymous": false,
      "inputs": [
        {
          "indexed": true,
          "internalType": "address",
          "name": "from",
          "type": "address"
        },
        {
          "indexed": true,
          "internalType": "address",
          "name": "to",
          "type": "address"
        },
        {
          "indexed": false,
          "internalType": "uint256",
          "name": "value",
          "type": "uint256"
        }
      ],
      "name": "Transfer",
      "type": "event"
    },
    {
      "anonymous": false,
      "inputs": [
        {
          "indexed": false,
          "internalType": "uint256",
          "name": "numTickets",
          "type": "uint256"
        }
      ],
      "name": "enteredMainRaffle",
      "type": "event"
    },
    {
      "anonymous": false,
      "inputs": [
        {
          "indexed": false,
          "internalType": "uint256",
          "name": "numTickets",
          "type": "uint256"
        }
      ],
      "name": "enteredSubRaffle",
      "type": "event"
    },
    {
      "inputs": [],
      "name": "BASE_RATE",
      "outputs": [
        {
          "internalType": "uint256",
          "name": "",
          "type": "uint256"
        }
      ],
      "stateMutability": "view",
      "type": "function"
    },
    {
      "inputs": [],
      "name": "LEGENDARY_RATE",
      "outputs": [
        {
          "internalType": "uint256",
          "name": "",
          "type": "uint256"
        }
      ],
      "stateMutability": "view",
      "type": "function"
    },
    {
      "inputs": [],
      "name": "PixelTigers",
      "outputs": [
        {
          "internalType": "contract iPixelTigers",
          "name": "",
          "type": "address"
        }
      ],
      "stateMutability": "view",
      "type": "function"
    },
    {
      "inputs": [],
      "name": "TICKET_PRICE",
      "outputs": [
        {
          "internalType": "uint256",
          "name": "",
          "type": "uint256"
        }
      ],
      "stateMutability": "view",
      "type": "function"
    },
    {
      "inputs": [
        {
          "internalType": "address",
          "name": "owner",
          "type": "address"
        },
        {
          "internalType": "address",
          "name": "spender",
          "type": "address"
        }
      ],
      "name": "allowance",
      "outputs": [
        {
          "internalType": "uint256",
          "name": "",
          "type": "uint256"
        }
      ],
      "stateMutability": "view",
      "type": "function"
    },
    {
      "inputs": [
        {
          "internalType": "address",
          "name": "",
          "type": "address"
        }
      ],
      "name": "allowedAddresses",
      "outputs": [
        {
          "internalType": "bool",
          "name": "",
          "type": "bool"
        }
      ],
      "stateMutability": "view",
      "type": "function"
    },
    {
      "inputs": [
        {
          "internalType": "address",
          "name": "spender",
          "type": "address"
        },
        {
          "internalType": "uint256",
          "name": "amount",
          "type": "uint256"
        }
      ],
      "name": "approve",
      "outputs": [
        {
          "internalType": "bool",
          "name": "",
          "type": "bool"
        }
      ],
      "stateMutability": "nonpayable",
      "type": "function"
    },
    {
      "inputs": [
        {
          "internalType": "address",
          "name": "account",
          "type": "address"
        }
      ],
      "name": "balanceOf",
      "outputs": [
        {
          "internalType": "uint256",
          "name": "",
          "type": "uint256"
        }
      ],
      "stateMutability": "view",
      "type": "function"
    },
    {
      "inputs": [
        {
          "internalType": "address",
          "name": "user",
          "type": "address"
        },
        {
          "internalType": "uint256",
          "name": "amount",
          "type": "uint256"
        }
      ],
      "name": "burn",
      "outputs": [],
      "stateMutability": "nonpayable",
      "type": "function"
    },
    {
      "inputs": [],
      "name": "claimReward",
      "outputs": [],
      "stateMutability": "nonpayable",
      "type": "function"
    },
    {
      "inputs": [],
      "name": "clearMainRaffleList",
      "outputs": [],
      "stateMutability": "nonpayable",
      "type": "function"
    },
    {
      "inputs": [],
      "name": "clearSubRaffleList",
      "outputs": [],
      "stateMutability": "nonpayable",
      "type": "function"
    },
    {
      "inputs": [],
      "name": "decimals",
      "outputs": [
        {
          "internalType": "uint8",
          "name": "",
          "type": "uint8"
        }
      ],
      "stateMutability": "view",
      "type": "function"
    },
    {
      "inputs": [
        {
          "internalType": "address",
          "name": "spender",
          "type": "address"
        },
        {
          "internalType": "uint256",
          "name": "subtractedValue",
          "type": "uint256"
        }
      ],
      "name": "decreaseAllowance",
      "outputs": [
        {
          "internalType": "bool",
          "name": "",
          "type": "bool"
        }
      ],
      "stateMutability": "nonpayable",
      "type": "function"
    },
    {
      "inputs": [
        {
          "internalType": "uint256",
          "name": "numTickets",
          "type": "uint256"
        }
      ],
      "name": "enterMainRaffle",
      "outputs": [],
      "stateMutability": "nonpayable",
      "type": "function"
    },
    {
      "inputs": [
        {
          "internalType": "uint256",
          "name": "numTickets",
          "type": "uint256"
        }
      ],
      "name": "enterSubRaffle",
      "outputs": [],
      "stateMutability": "nonpayable",
      "type": "function"
    },
    {
      "inputs": [
        {
          "internalType": "address",
          "name": "spender",
          "type": "address"
        },
        {
          "internalType": "uint256",
          "name": "addedValue",
          "type": "uint256"
        }
      ],
      "name": "increaseAllowance",
      "outputs": [
        {
          "internalType": "bool",
          "name": "",
          "type": "bool"
        }
      ],
      "stateMutability": "nonpayable",
      "type": "function"
    },
    {
      "inputs": [
        {
          "internalType": "address",
          "name": "",
          "type": "address"
        }
      ],
      "name": "lastUpdate",
      "outputs": [
        {
          "internalType": "uint256",
          "name": "",
          "type": "uint256"
        }
      ],
      "stateMutability": "view",
      "type": "function"
    },
    {
      "inputs": [],
      "name": "mainRafflinglist",
      "outputs": [
        {
          "internalType": "address[]",
          "name": "",
          "type": "address[]"
        }
      ],
      "stateMutability": "view",
      "type": "function"
    },
    {
      "inputs": [
        {
          "internalType": "address",
          "name": "",
          "type": "address"
        }
      ],
      "name": "minttime",
      "outputs": [
        {
          "internalType": "uint256",
          "name": "",
          "type": "uint256"
        }
      ],
      "stateMutability": "view",
      "type": "function"
    },
    {
      "inputs": [],
      "name": "name",
      "outputs": [
        {
          "internalType": "string",
          "name": "",
          "type": "string"
        }
      ],
      "stateMutability": "view",
      "type": "function"
    },
    {
      "inputs": [
        {
          "internalType": "address",
          "name": "user",
          "type": "address"
        }
      ],
      "name": "numTigersRewardsUnclaimed",
      "outputs": [
        {
          "internalType": "uint256",
          "name": "",
          "type": "uint256"
        }
      ],
      "stateMutability": "view",
      "type": "function"
    },
    {
      "inputs": [],
      "name": "owner",
      "outputs": [
        {
          "internalType": "address",
          "name": "",
          "type": "address"
        }
      ],
      "stateMutability": "view",
      "type": "function"
    },
    {
      "inputs": [],
      "name": "renounceOwnership",
      "outputs": [],
      "stateMutability": "nonpayable",
      "type": "function"
    },
    {
      "inputs": [
        {
          "internalType": "address",
          "name": "from",
          "type": "address"
        },
        {
          "internalType": "address",
          "name": "to",
          "type": "address"
        }
      ],
      "name": "rewardSystemUpdate",
      "outputs": [],
      "stateMutability": "nonpayable",
      "type": "function"
    },
    {
      "inputs": [
        {
          "internalType": "address",
          "name": "_address",
          "type": "address"
        },
        {
          "internalType": "bool",
          "name": "_access",
          "type": "bool"
        }
      ],
      "name": "setAllowedAddresses",
      "outputs": [],
      "stateMutability": "nonpayable",
      "type": "function"
    },
    {
      "inputs": [
        {
          "internalType": "address",
          "name": "ERC721Address",
          "type": "address"
        }
      ],
      "name": "setERC721",
      "outputs": [],
      "stateMutability": "nonpayable",
      "type": "function"
    },
    {
      "inputs": [
        {
          "internalType": "address",
          "name": "",
          "type": "address"
        }
      ],
      "name": "storeRewards",
      "outputs": [
        {
          "internalType": "uint256",
          "name": "",
          "type": "uint256"
        }
      ],
      "stateMutability": "view",
      "type": "function"
    },
    {
      "inputs": [],
      "name": "subRafflinglist",
      "outputs": [
        {
          "internalType": "address[]",
          "name": "",
          "type": "address[]"
        }
      ],
      "stateMutability": "view",
      "type": "function"
    },
    {
      "inputs": [],
      "name": "symbol",
      "outputs": [
        {
          "internalType": "string",
          "name": "",
          "type": "string"
        }
      ],
      "stateMutability": "view",
      "type": "function"
    },
    {
      "inputs": [
        {
          "internalType": "uint256",
          "name": "",
          "type": "uint256"
        }
      ],
      "name": "tigerClaimedInitialReward",
      "outputs": [
        {
          "internalType": "bool",
          "name": "",
          "type": "bool"
        }
      ],
      "stateMutability": "view",
      "type": "function"
    },
    {
      "inputs": [
        {
          "internalType": "address",
          "name": "user",
          "type": "address"
        }
      ],
      "name": "timeStamp",
      "outputs": [],
      "stateMutability": "nonpayable",
      "type": "function"
    },
    {
      "inputs": [],
      "name": "toggleReward",
      "outputs": [],
      "stateMutability": "nonpayable",
      "type": "function"
    },
    {
      "inputs": [],
      "name": "totalSupply",
      "outputs": [
        {
          "internalType": "uint256",
          "name": "",
          "type": "uint256"
        }
      ],
      "stateMutability": "view",
      "type": "function"
    },
    {
      "inputs": [
        {
          "internalType": "address",
          "name": "user",
          "type": "address"
        }
      ],
      "name": "totalTokensClaimable",
      "outputs": [
        {
          "internalType": "uint256",
          "name": "",
          "type": "uint256"
        }
      ],
      "stateMutability": "view",
      "type": "function"
    },
    {
      "inputs": [
        {
          "internalType": "address",
          "name": "recipient",
          "type": "address"
        },
        {
          "internalType": "uint256",
          "name": "amount",
          "type": "uint256"
        }
      ],
      "name": "transfer",
      "outputs": [
        {
          "internalType": "bool",
          "name": "",
          "type": "bool"
        }
      ],
      "stateMutability": "nonpayable",
      "type": "function"
    },
    {
      "inputs": [
        {
          "internalType": "address",
          "name": "sender",
          "type": "address"
        },
        {
          "internalType": "address",
          "name": "recipient",
          "type": "address"
        },
        {
          "internalType": "uint256",
          "name": "amount",
          "type": "uint256"
        }
      ],
      "name": "transferFrom",
      "outputs": [
        {
          "internalType": "bool",
          "name": "",
          "type": "bool"
        }
      ],
      "stateMutability": "nonpayable",
      "type": "function"
    },
    {
      "inputs": [
        {
          "internalType": "address",
          "name": "newOwner",
          "type": "address"
        }
      ],
      "name": "transferOwnership",
      "outputs": [],
      "stateMutability": "nonpayable",
      "type": "function"
    }
  ],
  "bytecode": "0x60806040526005805460ff60a01b191690553480156200001e57600080fd5b50604051620022c5380380620022c58339810160408190526200004191620001e8565b60405180604001604052806005815260200164141256115360da1b8152506040518060400160405280600381526020016214161360ea1b81525081600390805190602001906200009392919062000142565b508051620000a990600490602084019062000142565b505050620000c6620000c0620000ec60201b60201c565b620000f0565b600d80546001600160a01b0319166001600160a01b039290921691909117905562000255565b3390565b600580546001600160a01b038381166001600160a01b0319831681179093556040519116919082907f8be0079c531659141344cd1fd0a4f28419497f9722a3daafe3b4186f6b6457e090600090a35050565b828054620001509062000218565b90600052602060002090601f016020900481019282620001745760008555620001bf565b82601f106200018f57805160ff1916838001178555620001bf565b82800160010185558215620001bf579182015b82811115620001bf578251825591602001919060010190620001a2565b50620001cd929150620001d1565b5090565b5b80821115620001cd5760008155600101620001d2565b600060208284031215620001fa578081fd5b81516001600160a01b038116811462000211578182fd5b9392505050565b600181811c908216806200022d57607f821691505b602082108114156200024f57634e487b7160e01b600052602260045260246000fd5b50919050565b61206080620002656000396000f3fe608060405234801561001057600080fd5b50600436106102325760003560e01c8063617ec30411610130578063a457c2d7116100b8578063b9fc99ec1161007c578063b9fc99ec146104cd578063bcc44401146104d5578063cb03fb1e146104e8578063dd62ed3e14610508578063f2fde38b1461054157600080fd5b8063a457c2d714610484578063a9059cbb14610497578063ac8724cf146104aa578063af61ee9c146104b2578063b88a802f146104c557600080fd5b806389781912116100ff57806389781912146104325780638da5cb5b1461044557806395d89b41146104565780639dc29fac1461045e578063a1b1200c1461047157600080fd5b8063617ec304146103e65780636f8339dc146103f957806370a0823114610401578063715018a61461042a57600080fd5b8063371afcb6116101be5780635474759911610182578063547475991461037157806356e3bf77146103795780635a329595146103995780635b89e639146103ac5780635bdfa668146103bb57600080fd5b8063371afcb6146102f857806339509351146103185780634120657a1461032b57806341910f90146102b457806352d162d31461034e57600080fd5b80631907f92f116102055780631907f92f1461029f5780631a95f15f146102b457806323b872dd146102c3578063313ce567146102d657806335150504146102e557600080fd5b806306fdde0314610237578063094144a514610255578063095ea7b31461026a57806318160ddd1461028d575b600080fd5b61023f610554565b60405161024c9190611eb2565b60405180910390f35b610268610263366004611c84565b6105e6565b005b61027d610278366004611d4c565b61063b565b604051901515815260200161024c565b6002545b60405190815260200161024c565b6102a7610651565b60405161024c9190611e65565b610291678ac7230489e8000081565b61027d6102d1366004611cd7565b6106b2565b6040516012815260200161024c565b6102686102f3366004611c84565b61075c565b610291610306366004611c84565b60076020526000908152604090205481565b61027d610326366004611d4c565b61078f565b61027d610339366004611c84565b60096020526000908152604090205460ff1681565b61027d61035c366004611e35565b600a6020526000908152604090205460ff1681565b6102686107cb565b610291610387366004611c84565b60066020526000908152604090205481565b6102686103a7366004611ca5565b610803565b61029167d02ab486cedc000081565b600d546103ce906001600160a01b031681565b6040516001600160a01b03909116815260200161024c565b6102686103f4366004611e35565b6108e0565b6102a7610a53565b61029161040f366004611c84565b6001600160a01b031660009081526020819052604090205490565b610268610ab3565b610268610440366004611d12565b610ae7565b6005546001600160a01b03166103ce565b61023f610b3c565b61026861046c366004611d4c565b610b4b565b61029161047f366004611c84565b610bda565b61027d610492366004611d4c565b610cdf565b61027d6104a5366004611d4c565b610d78565b610268610d85565b6102686104c0366004611e35565b610dd0565b610268610f37565b610268611121565b6102916104e3366004611c84565b611157565b6102916104f6366004611c84565b60086020526000908152604090205481565b610291610516366004611ca5565b6001600160a01b03918216600090815260016020908152604080832093909416825291909152205490565b61026861054f366004611c84565b6111e8565b60606003805461056390611fa8565b80601f016020809104026020016040519081016040528092919081815260200182805461058f90611fa8565b80156105dc5780601f106105b1576101008083540402835291602001916105dc565b820191906000526020600020905b8154815290600101906020018083116105bf57829003601f168201915b5050505050905090565b6005546001600160a01b031633146106195760405162461bcd60e51b815260040161061090611f05565b60405180910390fd5b600d80546001600160a01b0319166001600160a01b0392909216919091179055565b6000610648338484611283565b50600192915050565b6060600c8054806020026020016040519081016040528092919081815260200182805480156105dc57602002820191906000526020600020905b81546001600160a01b0316815260019091019060200180831161068b575050505050905090565b60006106bf8484846113a8565b6001600160a01b0384166000908152600160209081526040808320338452909152902054828110156107445760405162461bcd60e51b815260206004820152602860248201527f45524332303a207472616e7366657220616d6f756e74206578636565647320616044820152676c6c6f77616e636560c01b6064820152608401610610565b6107518533858403611283565b506001949350505050565b600d546001600160a01b0316331461077357600080fd5b6001600160a01b03166000908152600660205260409020429055565b3360008181526001602090815260408083206001600160a01b038716845290915281205490916106489185906107c6908690611f3a565b611283565b6005546001600160a01b031633146107f55760405162461bcd60e51b815260040161061090611f05565b610801600b6000611c3b565b565b600d546001600160a01b0316331461081a57600080fd5b6001600160a01b0382161561087b5761083282611577565b6001600160a01b0383166000908152600760205260408120805490919061085a908490611f3a565b90915550506001600160a01b03821660009081526008602052604090204290555b6001600160a01b038116156108dc5761089381611577565b6001600160a01b038216600090815260076020526040812080549091906108bb908490611f3a565b90915550506001600160a01b03811660009081526008602052604090204290555b5050565b600d546040516370a0823160e01b81523360048201526000916001600160a01b0316906370a082319060240160206040518083038186803b15801561092457600080fd5b505afa158015610938573d6000803e3d6000fd5b505050506040513d601f19601f8201168201806040525081019061095c9190611e4d565b116109a15760405162461bcd60e51b8152602060048201526015602482015274446f206e6f74206f776e20616e792054696765727360581b6044820152606401610610565b6109bc336109b7678ac7230489e8000084611f72565b6119c4565b60005b81811015610a1b57600b80546001810182556000919091527f0175b7a638427703f0dbe7bb9bbf987a2551717b34e79f33b5b1008d1fa01db90180546001600160a01b0319163317905580610a1381611fe3565b9150506109bf565b506040518181527f1c5542b6fdd90a2bb89e5e648cf9d45d4985085e7eaeb1d55a1147204316fc2f906020015b60405180910390a150565b6060600b8054806020026020016040519081016040528092919081815260200182805480156105dc576020028201919060005260206000209081546001600160a01b0316815260019091019060200180831161068b575050505050905090565b6005546001600160a01b03163314610add5760405162461bcd60e51b815260040161061090611f05565b6108016000611b0a565b6005546001600160a01b03163314610b115760405162461bcd60e51b815260040161061090611f05565b6001600160a01b03919091166000908152600960205260409020805460ff1916911515919091179055565b60606004805461056390611fa8565b3360009081526009602052604090205460ff1680610b735750600d546001600160a01b031633145b610bd05760405162461bcd60e51b815260206004820152602860248201527f4164647265737320646f6573206e6f742068617665207065726d697373696f6e604482015267103a3790313ab93760c11b6064820152608401610610565b6108dc82826119c4565b600d546040516313cb3cb360e31b81526001600160a01b0383811660048301526000928392911690639e59e5989060240160006040518083038186803b158015610c2357600080fd5b505afa158015610c37573d6000803e3d6000fd5b505050506040513d6000823e601f3d908101601f19168201604052610c5f9190810190611d75565b90506000805b8251811015610cd7576000838281518110610c9057634e487b7160e01b600052603260045260246000fd5b6020908102919091018101516000818152600a90925260409091205490915060ff16610cc45782610cc081611fe3565b9350505b5080610ccf81611fe3565b915050610c65565b509392505050565b3360009081526001602090815260408083206001600160a01b038616845290915281205482811015610d615760405162461bcd60e51b815260206004820152602560248201527f45524332303a2064656372656173656420616c6c6f77616e63652062656c6f77604482015264207a65726f60d81b6064820152608401610610565b610d6e3385858403611283565b5060019392505050565b60006106483384846113a8565b6005546001600160a01b03163314610daf5760405162461bcd60e51b815260040161061090611f05565b6005805460ff60a01b198116600160a01b9182900460ff1615909102179055565b600d546040516370a0823160e01b81523360048201526000916001600160a01b0316906370a082319060240160206040518083038186803b158015610e1457600080fd5b505afa158015610e28573d6000803e3d6000fd5b505050506040513d601f19601f82011682018060405250810190610e4c9190611e4d565b11610e915760405162461bcd60e51b8152602060048201526015602482015274446f206e6f74206f776e20616e792054696765727360581b6044820152606401610610565b610ea7336109b7678ac7230489e8000084611f72565b60005b81811015610f0657600c80546001810182556000919091527fdf6966c971051c3d54ec59162606531493a51404a002842f56009d7e5cf4a8c70180546001600160a01b0319163317905580610efe81611fe3565b915050610eaa565b506040518181527f81470f4a00cbc69e7706a811a5115317603137b11c8bca6231bbc3e9c0da335590602001610a48565b600554600160a01b900460ff1615610f9d5760405162461bcd60e51b8152602060048201526024808201527f436c61696d696e67206f6620247374726970657320686173206265656e2070616044820152631d5cd95960e21b6064820152608401610610565b600d546040516313cb3cb360e31b81523360048201526000916001600160a01b031690639e59e5989060240160006040518083038186803b158015610fe157600080fd5b505afa158015610ff5573d6000803e3d6000fd5b505050506040513d6000823e601f3d908101601f1916820160405261101d9190810190611d75565b90506000805b82518110156110b357600083828151811061104e57634e487b7160e01b600052603260045260246000fd5b6020908102919091018101516000818152600a90925260409091205490915060ff166110a0578261107e81611fe3565b6000838152600a60205260409020805460ff1916600117905593506110a09050565b50806110ab81611fe3565b915050611023565b50336000818152600760205260409020546110fe91906110d282611577565b6110e5856801158e460913d00000611f72565b6110ef9190611f3a565b6110f99190611f3a565b611b5c565b505033600090815260076020908152604080832083905560089091529020429055565b6005546001600160a01b0316331461114b5760405162461bcd60e51b815260040161061090611f05565b610801600c6000611c3b565b60008061116383610bda565b11156111c1576001600160a01b03821660009081526007602052604090205461118b83610bda565b61119e906801158e460913d00000611f72565b6111a784611577565b6111b19190611f3a565b6111bb9190611f3a565b92915050565b6001600160a01b0382166000908152600760205260409020546111b183611577565b919050565b6005546001600160a01b031633146112125760405162461bcd60e51b815260040161061090611f05565b6001600160a01b0381166112775760405162461bcd60e51b815260206004820152602660248201527f4f776e61626c653a206e6577206f776e657220697320746865207a65726f206160448201526564647265737360d01b6064820152608401610610565b61128081611b0a565b50565b6001600160a01b0383166112e55760405162461bcd60e51b8152602060048201526024808201527f45524332303a20617070726f76652066726f6d20746865207a65726f206164646044820152637265737360e01b6064820152608401610610565b6001600160a01b0382166113465760405162461bcd60e51b815260206004820152602260248201527f45524332303a20617070726f766520746f20746865207a65726f206164647265604482015261737360f01b6064820152608401610610565b6001600160a01b0383811660008181526001602090815260408083209487168084529482529182902085905590518481527f8c5be1e5ebec7d5bd14f71427d1e84f3dd0314c0f7b2291e5b200ac8c7c3b92591015b60405180910390a3505050565b6001600160a01b03831661140c5760405162461bcd60e51b815260206004820152602560248201527f45524332303a207472616e736665722066726f6d20746865207a65726f206164604482015264647265737360d81b6064820152608401610610565b6001600160a01b03821661146e5760405162461bcd60e51b815260206004820152602360248201527f45524332303a207472616e7366657220746f20746865207a65726f206164647260448201526265737360e81b6064820152608401610610565b6001600160a01b038316600090815260208190526040902054818110156114e65760405162461bcd60e51b815260206004820152602660248201527f45524332303a207472616e7366657220616d6f756e7420657863656564732062604482015265616c616e636560d01b6064820152608401610610565b6001600160a01b0380851660009081526020819052604080822085850390559185168152908120805484929061151d908490611f3a565b92505081905550826001600160a01b0316846001600160a01b03167fddf252ad1be2c89b69c2b068fc378daa952ba7f163c4a11628f55a4df523b3ef8460405161156991815260200190565b60405180910390a350505050565b600d546040516329ca6ad760e01b81526001600160a01b03838116600483015260009283929116906329ca6ad79060240160206040518083038186803b1580156115c057600080fd5b505afa1580156115d4573d6000803e3d6000fd5b505050506040513d601f19601f820116820180604052508101906115f89190611e4d565b11156118af576001600160a01b0382166000908152600660209081526040808320546008909252909120546201518091111561164c576001600160a01b038316600090815260066020526040902054611666565b6001600160a01b0383166000908152600860205260409020545b6116709042611f91565b600d546040516329ca6ad760e01b81526001600160a01b03868116600483015267d02ab486cedc00009216906329ca6ad79060240160206040518083038186803b1580156116bd57600080fd5b505afa1580156116d1573d6000803e3d6000fd5b505050506040513d601f19601f820116820180604052508101906116f59190611e4d565b6116ff9190611f72565b6117099190611f72565b6117139190611f52565b6001600160a01b03831660009081526006602090815260408083205460089092529091205462015180911115611761576001600160a01b03841660009081526006602052604090205461177b565b6001600160a01b0384166000908152600860205260409020545b6117859042611f91565b600d546040516329ca6ad760e01b81526001600160a01b038781166004830152678ac7230489e800009216906329ca6ad79060240160206040518083038186803b1580156117d257600080fd5b505afa1580156117e6573d6000803e3d6000fd5b505050506040513d601f19601f8201168201806040525081019061180a9190611e4d565b600d54604051630ed3258160e41b81526001600160a01b0389811660048301529091169063ed3258109060240160206040518083038186803b15801561184f57600080fd5b505afa158015611863573d6000803e3d6000fd5b505050506040513d601f19601f820116820180604052508101906118879190611e4d565b6118919190611f91565b61189b9190611f72565b6118a59190611f72565b6111b19190611f52565b6001600160a01b038216600090815260066020908152604080832054600890925290912054620151809111156118fd576001600160a01b038316600090815260066020526040902054611917565b6001600160a01b0383166000908152600860205260409020545b6119219042611f91565b600d54604051630ed3258160e41b81526001600160a01b038681166004830152678ac7230489e8000092169063ed3258109060240160206040518083038186803b15801561196e57600080fd5b505afa158015611982573d6000803e3d6000fd5b505050506040513d601f19601f820116820180604052508101906119a69190611e4d565b6119b09190611f72565b6119ba9190611f72565b6111bb9190611f52565b6001600160a01b038216611a245760405162461bcd60e51b815260206004820152602160248201527f45524332303a206275726e2066726f6d20746865207a65726f206164647265736044820152607360f81b6064820152608401610610565b6001600160a01b03821660009081526020819052604090205481811015611a985760405162461bcd60e51b815260206004820152602260248201527f45524332303a206275726e20616d6f756e7420657863656564732062616c616e604482015261636560f01b6064820152608401610610565b6001600160a01b0383166000908152602081905260408120838303905560028054849290611ac7908490611f91565b90915550506040518281526000906001600160a01b038516907fddf252ad1be2c89b69c2b068fc378daa952ba7f163c4a11628f55a4df523b3ef9060200161139b565b600580546001600160a01b038381166001600160a01b0319831681179093556040519116919082907f8be0079c531659141344cd1fd0a4f28419497f9722a3daafe3b4186f6b6457e090600090a35050565b6001600160a01b038216611bb25760405162461bcd60e51b815260206004820152601f60248201527f45524332303a206d696e7420746f20746865207a65726f2061646472657373006044820152606401610610565b8060026000828254611bc49190611f3a565b90915550506001600160a01b03821660009081526020819052604081208054839290611bf1908490611f3a565b90915550506040518181526001600160a01b038316906000907fddf252ad1be2c89b69c2b068fc378daa952ba7f163c4a11628f55a4df523b3ef9060200160405180910390a35050565b508054600082559060005260206000209081019061128091905b80821115611c695760008155600101611c55565b5090565b80356001600160a01b03811681146111e357600080fd5b600060208284031215611c95578081fd5b611c9e82611c6d565b9392505050565b60008060408385031215611cb7578081fd5b611cc083611c6d565b9150611cce60208401611c6d565b90509250929050565b600080600060608486031215611ceb578081fd5b611cf484611c6d565b9250611d0260208501611c6d565b9150604084013590509250925092565b60008060408385031215611d24578182fd5b611d2d83611c6d565b915060208301358015158114611d41578182fd5b809150509250929050565b60008060408385031215611d5e578182fd5b611d6783611c6d565b946020939093013593505050565b60006020808385031215611d87578182fd5b825167ffffffffffffffff80821115611d9e578384fd5b818501915085601f830112611db1578384fd5b815181811115611dc357611dc3612014565b8060051b604051601f19603f83011681018181108582111715611de857611de8612014565b604052828152858101935084860182860187018a1015611e06578788fd5b8795505b83861015611e28578051855260019590950194938601938601611e0a565b5098975050505050505050565b600060208284031215611e46578081fd5b5035919050565b600060208284031215611e5e578081fd5b5051919050565b6020808252825182820181905260009190848201906040850190845b81811015611ea65783516001600160a01b031683529284019291840191600101611e81565b50909695505050505050565b6000602080835283518082850152825b81811015611ede57858101830151858201604001528201611ec2565b81811115611eef5783604083870101525b50601f01601f1916929092016040019392505050565b6020808252818101527f4f776e61626c653a2063616c6c6572206973206e6f7420746865206f776e6572604082015260600190565b60008219821115611f4d57611f4d611ffe565b500190565b600082611f6d57634e487b7160e01b81526012600452602481fd5b500490565b6000816000190483118215151615611f8c57611f8c611ffe565b500290565b600082821015611fa357611fa3611ffe565b500390565b600181811c90821680611fbc57607f821691505b60208210811415611fdd57634e487b7160e01b600052602260045260246000fd5b50919050565b6000600019821415611ff757611ff7611ffe565b5060010190565b634e487b7160e01b600052601160045260246000fd5b634e487b7160e01b600052604160045260246000fdfea26469706673582212208fc90b63194700befbbaafd21f6adaed5a101910b3f05dadbc7d55c7b1ec1e6b64736f6c63430008040033",
  "linkReferences": {},
  "deployedLinkReferences": {}
}